:1000000071C0000086C0000084C0000082C00000F3
:1000100080C000007EC000007CC000007AC00000EC
:1000200078C0000076C0000074C0000072C00000FC
:1000300070C000006EC000006CC000006AC000000C
:1000400068C0000066C0000064C0000062C000001C
:1000500060C000005EC000005CC000005AC000002C
:1000600058C0000056C0000054C0000052C000003C
:1000700050C000004EC000004CC000004AC000004C
:1000800048C0000046C0000044C0000042C000005C
:1000900040C000003EC000003CC000003AC000006C
:1000A00038C0000036C0000034C0000032C000007C
:1000B00030C000002EC000002CC000002AC000008C
:1000C00028C0000026C0000024C0000022C000009C
:1000D00020C000001EC000001CC000001AC00000AC
:1000E00018C0000011241FBECFEFD1E2DEBFCDBF8C
:1000F00000E00CBF12E0A0E0B2E0EAE4F2E000E0D1
:100100000BBF02C007900D92A032B107D9F790D073
:100110009AC076CF98B19F70282F207F922B98B9E4
:1001200098B19E7F98B998B1926098B900C000C00C
:10013000000098B19D7F98B932E43A95F1F700C07C
:1001400028B130E1839FC0011124922F9F70892B29
:1001500088B988B1826088B900C0000088B18D7FFD
:1001600088B987EE93E00197F1F700C00000089589
:1001700098B19F70282F207F922B98B998B19160E9
:1001800098B998B1926098B9000098B19D7F98B9DC
:1001900032E43A95F1F700C028B130E1839FC00105
:1001A0001124922F9F70892B88B988B1826088B9F9
:1001B000000088B18D7F88B983EF91E00197F1F756
:1001C00000C0000008958FE0A5CF08958FEF87B994
:1001D00087E893E10197F1F700C0000083E39ADF1D
:1001E00082E398DF88E296DF8CE094DF86E092DF9E
:1001F00081E090DF83EF91E00197F1F700C000000C
:1002000080E888CF08950F931F93CF93DF938C01DD
:10021000C0E0D0E002C0ACDF2196F801EC0FFD1F7A
:1002200080818111F8CFDF91CF911F910F910895B7
:10023000CDDFC9DF80E092E0E6DF80EC6BDF81E1BB
:0A02400092E0E1DFFFCFF894FFCF5A
:10024A00456E746875736961737469634765656B34
:10025A0000486170707920436F64696E67210000FD
:00000001FF
